{
  "_format": "hh-sol-artifact-1",
  "contractName": "Survey",
  "sourceName": "contracts/Survey.sol",
  "abi": [
    {
      "inputs": [
        {
          "internalType": "uint256",
          "name": "_cooldownSeconds",
          "type": "uint256"
        }
      ],
      "stateMutability": "nonpayable",
      "type": "constructor"
    },
    {
      "anonymous": false,
      "inputs": [
        {
          "indexed": true,
          "internalType": "address",
          "name": "owner",
          "type": "address"
        },
        {
          "indexed": true,
          "internalType": "address",
          "name": "spender",
          "type": "address"
        },
        {
          "indexed": false,
          "internalType": "uint256",
          "name": "value",
          "type": "uint256"
        }
      ],
      "name": "Approval",
      "type": "event"
    },
    {
      "anonymous": false,
      "inputs": [
        {
          "indexed": true,
          "internalType": "address",
          "name": "previousOwner",
          "type": "address"
        },
        {
          "indexed": true,
          "internalType": "address",
          "name": "newOwner",
          "type": "address"
        }
      ],
      "name": "OwnershipTransferred",
      "type": "event"
    },
    {
      "anonymous": false,
      "inputs": [
        {
          "indexed": true,
          "internalType": "address",
          "name": "from",
          "type": "address"
        },
        {
          "indexed": true,
          "internalType": "address",
          "name": "to",
          "type": "address"
        },
        {
          "indexed": false,
          "internalType": "uint256",
          "name": "value",
          "type": "uint256"
        }
      ],
      "name": "Transfer",
      "type": "event"
    },
    {
      "inputs": [
        {
          "internalType": "address",
          "name": "owner",
          "type": "address"
        },
        {
          "internalType": "address",
          "name": "spender",
          "type": "address"
        }
      ],
      "name": "allowance",
      "outputs": [
        {
          "internalType": "uint256",
          "name": "",
          "type": "uint256"
        }
      ],
      "stateMutability": "view",
      "type": "function"
    },
    {
      "inputs": [
        {
          "internalType": "address",
          "name": "spender",
          "type": "address"
        },
        {
          "internalType": "uint256",
          "name": "amount",
          "type": "uint256"
        }
      ],
      "name": "approve",
      "outputs": [
        {
          "internalType": "bool",
          "name": "",
          "type": "bool"
        }
      ],
      "stateMutability": "nonpayable",
      "type": "function"
    },
    {
      "inputs": [
        {
          "internalType": "address",
          "name": "account",
          "type": "address"
        }
      ],
      "name": "balanceOf",
      "outputs": [
        {
          "internalType": "uint256",
          "name": "",
          "type": "uint256"
        }
      ],
      "stateMutability": "view",
      "type": "function"
    },
    {
      "inputs": [],
      "name": "cooldownSeconds",
      "outputs": [
        {
          "internalType": "uint256",
          "name": "",
          "type": "uint256"
        }
      ],
      "stateMutability": "view",
      "type": "function"
    },
    {
      "inputs": [],
      "name": "decimals",
      "outputs": [
        {
          "internalType": "uint8",
          "name": "",
          "type": "uint8"
        }
      ],
      "stateMutability": "view",
      "type": "function"
    },
    {
      "inputs": [
        {
          "internalType": "address",
          "name": "spender",
          "type": "address"
        },
        {
          "internalType": "uint256",
          "name": "subtractedValue",
          "type": "uint256"
        }
      ],
      "name": "decreaseAllowance",
      "outputs": [
        {
          "internalType": "bool",
          "name": "",
          "type": "bool"
        }
      ],
      "stateMutability": "nonpayable",
      "type": "function"
    },
    {
      "inputs": [
        {
          "internalType": "address",
          "name": "spender",
          "type": "address"
        },
        {
          "internalType": "uint256",
          "name": "addedValue",
          "type": "uint256"
        }
      ],
      "name": "increaseAllowance",
      "outputs": [
        {
          "internalType": "bool",
          "name": "",
          "type": "bool"
        }
      ],
      "stateMutability": "nonpayable",
      "type": "function"
    },
    {
      "inputs": [
        {
          "internalType": "address",
          "name": "",
          "type": "address"
        }
      ],
      "name": "lastSubmittal",
      "outputs": [
        {
          "internalType": "uint256",
          "name": "",
          "type": "uint256"
        }
      ],
      "stateMutability": "view",
      "type": "function"
    },
    {
      "inputs": [],
      "name": "name",
      "outputs": [
        {
          "internalType": "string",
          "name": "",
          "type": "string"
        }
      ],
      "stateMutability": "view",
      "type": "function"
    },
    {
      "inputs": [],
      "name": "owner",
      "outputs": [
        {
          "internalType": "address",
          "name": "",
          "type": "address"
        }
      ],
      "stateMutability": "view",
      "type": "function"
    },
    {
      "inputs": [],
      "name": "renounceOwnership",
      "outputs": [],
      "stateMutability": "nonpayable",
      "type": "function"
    },
    {
      "inputs": [
        {
          "internalType": "uint256",
          "name": "_cooldownSeconds",
          "type": "uint256"
        }
      ],
      "name": "setCooldown",
      "outputs": [],
      "stateMutability": "nonpayable",
      "type": "function"
    },
    {
      "inputs": [
        {
          "internalType": "uint256",
          "name": "_surveyId",
          "type": "uint256"
        },
        {
          "internalType": "uint256[]",
          "name": "_answerIds",
          "type": "uint256[]"
        }
      ],
      "name": "submit",
      "outputs": [
        {
          "internalType": "bool",
          "name": "",
          "type": "bool"
        }
      ],
      "stateMutability": "nonpayable",
      "type": "function"
    },
    {
      "inputs": [],
      "name": "symbol",
      "outputs": [
        {
          "internalType": "string",
          "name": "",
          "type": "string"
        }
      ],
      "stateMutability": "view",
      "type": "function"
    },
    {
      "inputs": [],
      "name": "totalSupply",
      "outputs": [
        {
          "internalType": "uint256",
          "name": "",
          "type": "uint256"
        }
      ],
      "stateMutability": "view",
      "type": "function"
    },
    {
      "inputs": [
        {
          "internalType": "address",
          "name": "to",
          "type": "address"
        },
        {
          "internalType": "uint256",
          "name": "amount",
          "type": "uint256"
        }
      ],
      "name": "transfer",
      "outputs": [
        {
          "internalType": "bool",
          "name": "",
          "type": "bool"
        }
      ],
      "stateMutability": "nonpayable",
      "type": "function"
    },
    {
      "inputs": [
        {
          "internalType": "address",
          "name": "from",
          "type": "address"
        },
        {
          "internalType": "address",
          "name": "to",
          "type": "address"
        },
        {
          "internalType": "uint256",
          "name": "amount",
          "type": "uint256"
        }
      ],
      "name": "transferFrom",
      "outputs": [
        {
          "internalType": "bool",
          "name": "",
          "type": "bool"
        }
      ],
      "stateMutability": "nonpayable",
      "type": "function"
    },
    {
      "inputs": [
        {
          "internalType": "address",
          "name": "newOwner",
          "type": "address"
        }
      ],
      "name": "transferOwnership",
      "outputs": [],
      "stateMutability": "nonpayable",
      "type": "function"
    }
  ],
  "bytecode": "0x60806040523480156200001157600080fd5b5060405162001f9838038062001f9883398181016040528101906200003791906200029a565b6040518060400160405280600a81526020017f5155495a20546f6b656e000000000000000000000000000000000000000000008152506040518060400160405280600481526020017f5155495a000000000000000000000000000000000000000000000000000000008152508160039080519060200190620000bb929190620001d3565b508060049080519060200190620000d4929190620001d3565b505050620000f7620000eb6200010560201b60201c565b6200010d60201b60201c565b80600681905550506200034f565b600033905090565b6000600560009054906101000a900473ffffffffffffffffffffffffffffffffffffffff16905081600560006101000a81548173ffffffffffffffffffffffffffffffffffffffff021916908373ffffffffffffffffffffffffffffffffffffffff1602179055508173ffffffffffffffffffffffffffffffffffffffff168173ffffffffffffffffffffffffffffffffffffffff167f8be0079c531659141344cd1fd0a4f28419497f9722a3daafe3b4186f6b6457e060405160405180910390a35050565b828054620001e190620002d0565b90600052602060002090601f01602090048101928262000205576000855562000251565b82601f106200022057805160ff191683800117855562000251565b8280016001018555821562000251579182015b828111156200025057825182559160200191906001019062000233565b5b50905062000260919062000264565b5090565b5b808211156200027f57600081600090555060010162000265565b5090565b600081519050620002948162000335565b92915050565b600060208284031215620002ad57600080fd5b6000620002bd8482850162000283565b91505092915050565b6000819050919050565b60006002820490506001821680620002e957607f821691505b602082108114156200030057620002ff62000306565b5b50919050565b7f4e487b7100000000000000000000000000000000000000000000000000000000600052602260045260246000fd5b6200034081620002c6565b81146200034c57600080fd5b50565b611c39806200035f6000396000f3fe608060405234801561001057600080fd5b50600436106101165760003560e01c8063715018a6116100a2578063a457c2d711610071578063a457c2d7146102f7578063a9059cbb14610327578063b8221bc414610357578063dd62ed3e14610375578063f2fde38b146103a557610116565b8063715018a6146102815780638da5cb5b1461028b57806395d89b41146102a957806399036e2e146102c757610116565b80632f344195116100e95780632f344195146101b7578063313ce567146101e757806339509351146102055780634fc3f41a1461023557806370a082311461025157610116565b806306fdde031461011b578063095ea7b31461013957806318160ddd1461016957806323b872dd14610187575b600080fd5b6101236103c1565b60405161013091906117f6565b60405180910390f35b610153600480360381019061014e91906112c8565b610453565b60405161016091906117db565b60405180910390f35b610171610476565b60405161017e9190611978565b60405180910390f35b6101a1600480360381019061019c9190611279565b610480565b6040516101ae91906117db565b60405180910390f35b6101d160048036038101906101cc919061132d565b6104af565b6040516101de91906117db565b60405180910390f35b6101ef61062f565b6040516101fc9190611993565b60405180910390f35b61021f600480360381019061021a91906112c8565b610638565b60405161022c91906117db565b60405180910390f35b61024f600480360381019061024a9190611304565b61066f565b005b61026b60048036038101906102669190611214565b610681565b6040516102789190611978565b60405180910390f35b6102896106c9565b005b6102936106dd565b6040516102a091906117c0565b60405180910390f35b6102b1610707565b6040516102be91906117f6565b60405180910390f35b6102e160048036038101906102dc9190611214565b610799565b6040516102ee9190611978565b60405180910390f35b610311600480360381019061030c91906112c8565b6107b1565b60405161031e91906117db565b60405180910390f35b610341600480360381019061033c91906112c8565b610828565b60405161034e91906117db565b60405180910390f35b61035f61084b565b60405161036c9190611978565b60405180910390f35b61038f600480360381019061038a919061123d565b610851565b60405161039c9190611978565b60405180910390f35b6103bf60048036038101906103ba9190611214565b6108d8565b005b6060600380546103d090611b05565b80601f01602080910402602001604051908101604052809291908181526020018280546103fc90611b05565b80156104495780601f1061041e57610100808354040283529160200191610449565b820191906000526020600020905b81548152906001019060200180831161042c57829003601f168201915b5050505050905090565b60008061045e61095c565b905061046b818585610964565b600191505092915050565b6000600254905090565b60008061048b61095c565b9050610498858285610b2f565b6104a3858585610bbb565b60019150509392505050565b6000600654600760003373ffffffffffffffffffffffffffffffffffffffff1673ffffffffffffffffffffffffffffffffffffffff168152602001908152602001600020546104fe9190611a27565b421161053f576040517f08c379a0000000000000000000000000000000000000000000000000000000008152600401610536906118b8565b60405180910390fd5b42600760003373ffffffffffffffffffffffffffffffffffffffff1673ffffffffffffffffffffffffffffffffffffffff168152602001908152602001600020819055506000600860003373ffffffffffffffffffffffffffffffffffffffff1673ffffffffffffffffffffffffffffffffffffffff1681526020019081526020016000206000858152602001908152602001600020905080839080600181540180825580915050600190039060005260206000200160009091909190915090805190602001906106119291906110ea565b5061062433670de0b6b3a7640000610e3c565b600191505092915050565b60006012905090565b60008061064361095c565b90506106648185856106558589610851565b61065f9190611a27565b610964565b600191505092915050565b610677610f9c565b8060068190555050565b60008060008373ffffffffffffffffffffffffffffffffffffffff1673ffffffffffffffffffffffffffffffffffffffff168152602001908152602001600020549050919050565b6106d1610f9c565b6106db600061101a565b565b6000600560009054906101000a900473ffffffffffffffffffffffffffffffffffffffff16905090565b60606004805461071690611b05565b80601f016020809104026020016040519081016040528092919081815260200182805461074290611b05565b801561078f5780601f106107645761010080835404028352916020019161078f565b820191906000526020600020905b81548152906001019060200180831161077257829003601f168201915b5050505050905090565b60076020528060005260406000206000915090505481565b6000806107bc61095c565b905060006107ca8286610851565b90508381101561080f576040517f08c379a000000000000000000000000000000000000000000000000000000000815260040161080690611938565b60405180910390fd5b61081c8286868403610964565b60019250505092915050565b60008061083361095c565b9050610840818585610bbb565b600191505092915050565b60065481565b6000600160008473ffffffffffffffffffffffffffffffffffffffff1673ffffffffffffffffffffffffffffffffffffffff16815260200190815260200160002060008373ffffffffffffffffffffffffffffffffffffffff1673ffffffffffffffffffffffffffffffffffffffff16815260200190815260200160002054905092915050565b6108e0610f9c565b600073ffffffffffffffffffffffffffffffffffffffff168173ffffffffffffffffffffffffffffffffffffffff161415610950576040517f08c379a000000000000000000000000000000000000000000000000000000000815260040161094790611838565b60405180910390fd5b6109598161101a565b50565b600033905090565b600073ffffffffffffffffffffffffffffffffffffffff168373ffffffffffffffffffffffffffffffffffffffff1614156109d4576040517f08c379a00000000000000000000000000000000000000000000000000000000081526004016109cb90611918565b60405180910390fd5b600073ffffffffffffffffffffffffffffffffffffffff168273ffffffffffffffffffffffffffffffffffffffff161415610a44576040517f08c379a0000000000000000000000000000000000000000000000000000000008152600401610a3b90611858565b60405180910390fd5b80600160008573ffffffffffffffffffffffffffffffffffffffff1673ffffffffffffffffffffffffffffffffffffffff16815260200190815260200160002060008473ffffffffffffffffffffffffffffffffffffffff1673ffffffffffffffffffffffffffffffffffffffff168152602001908152602001600020819055508173ffffffffffffffffffffffffffffffffffffffff168373ffffffffffffffffffffffffffffffffffffffff167f8c5be1e5ebec7d5bd14f71427d1e84f3dd0314c0f7b2291e5b200ac8c7c3b92583604051610b229190611978565b60405180910390a3505050565b6000610b3b8484610851565b90507fffffffffffffffffffffffffffffffffffffffffffffffffffffffffffffffff8114610bb55781811015610ba7576040517f08c379a0000000000000000000000000000000000000000000000000000000008152600401610b9e90611878565b60405180910390fd5b610bb48484848403610964565b5b50505050565b600073ffffffffffffffffffffffffffffffffffffffff168373ffffffffffffffffffffffffffffffffffffffff161415610c2b576040517f08c379a0000000000000000000000000000000000000000000000000000000008152600401610c22906118f8565b60405180910390fd5b600073ffffffffffffffffffffffffffffffffffffffff168273ffffffffffffffffffffffffffffffffffffffff161415610c9b576040517f08c379a0000000000000000000000000000000000000000000000000000000008152600401610c9290611818565b60405180910390fd5b610ca68383836110e0565b60008060008573ffffffffffffffffffffffffffffffffffffffff1673ffffffffffffffffffffffffffffffffffffffff16815260200190815260200160002054905081811015610d2c576040517f08c379a0000000000000000000000000000000000000000000000000000000008152600401610d2390611898565b60405180910390fd5b8181036000808673ffffffffffffffffffffffffffffffffffffffff1673ffffffffffffffffffffffffffffffffffffffff16815260200190815260200160002081905550816000808573ffffffffffffffffffffffffffffffffffffffff1673ffffffffffffffffffffffffffffffffffffffff1681526020019081526020016000206000828254610dbf9190611a27565b925050819055508273ffffffffffffffffffffffffffffffffffffffff168473ffffffffffffffffffffffffffffffffffffffff167fddf252ad1be2c89b69c2b068fc378daa952ba7f163c4a11628f55a4df523b3ef84604051610e239190611978565b60405180910390a3610e368484846110e5565b50505050565b600073ffffffffffffffffffffffffffffffffffffffff168273ffffffffffffffffffffffffffffffffffffffff161415610eac576040517f08c379a0000000000000000000000000000000000000000000000000000000008152600401610ea390611958565b60405180910390fd5b610eb8600083836110e0565b8060026000828254610eca9190611a27565b92505081905550806000808473ffffffffffffffffffffffffffffffffffffffff1673ffffffffffffffffffffffffffffffffffffffff1681526020019081526020016000206000828254610f1f9190611a27565b925050819055508173ffffffffffffffffffffffffffffffffffffffff16600073ffffffffffffffffffffffffffffffffffffffff167fddf252ad1be2c89b69c2b068fc378daa952ba7f163c4a11628f55a4df523b3ef83604051610f849190611978565b60405180910390a3610f98600083836110e5565b5050565b610fa461095c565b73ffffffffffffffffffffffffffffffffffffffff16610fc26106dd565b73ffffffffffffffffffffffffffffffffffffffff1614611018576040517f08c379a000000000000000000000000000000000000000000000000000000000815260040161100f906118d8565b60405180910390fd5b565b6000600560009054906101000a900473ffffffffffffffffffffffffffffffffffffffff16905081600560006101000a81548173ffffffffffffffffffffffffffffffffffffffff021916908373ffffffffffffffffffffffffffffffffffffffff1602179055508173ffffffffffffffffffffffffffffffffffffffff168173ffffffffffffffffffffffffffffffffffffffff167f8be0079c531659141344cd1fd0a4f28419497f9722a3daafe3b4186f6b6457e060405160405180910390a35050565b505050565b505050565b828054828255906000526020600020908101928215611126579160200282015b8281111561112557825182559160200191906001019061110a565b5b5090506111339190611137565b5090565b5b80821115611150576000816000905550600101611138565b5090565b6000611167611162846119df565b6119ae565b9050808382526020820190508285602086028201111561118657600080fd5b60005b858110156111b6578161119c88826111ff565b845260208401935060208301925050600181019050611189565b5050509392505050565b6000813590506111cf81611bd5565b92915050565b600082601f8301126111e657600080fd5b81356111f6848260208601611154565b91505092915050565b60008135905061120e81611bec565b92915050565b60006020828403121561122657600080fd5b6000611234848285016111c0565b91505092915050565b6000806040838503121561125057600080fd5b600061125e858286016111c0565b925050602061126f858286016111c0565b9150509250929050565b60008060006060848603121561128e57600080fd5b600061129c868287016111c0565b93505060206112ad868287016111c0565b92505060406112be868287016111ff565b9150509250925092565b600080604083850312156112db57600080fd5b60006112e9858286016111c0565b92505060206112fa858286016111ff565b9150509250929050565b60006020828403121561131657600080fd5b6000611324848285016111ff565b91505092915050565b6000806040838503121561134057600080fd5b600061134e858286016111ff565b925050602083013567ffffffffffffffff81111561136b57600080fd5b611377858286016111d5565b9150509250929050565b61138a81611a7d565b82525050565b61139981611a8f565b82525050565b60006113aa82611a0b565b6113b48185611a16565b93506113c4818560208601611ad2565b6113cd81611bc4565b840191505092915050565b60006113e5602383611a16565b91507f45524332303a207472616e7366657220746f20746865207a65726f206164647260008301527f65737300000000000000000000000000000000000000000000000000000000006020830152604082019050919050565b600061144b602683611a16565b91507f4f776e61626c653a206e6577206f776e657220697320746865207a65726f206160008301527f64647265737300000000000000000000000000000000000000000000000000006020830152604082019050919050565b60006114b1602283611a16565b91507f45524332303a20617070726f766520746f20746865207a65726f20616464726560008301527f73730000000000000000000000000000000000000000000000000000000000006020830152604082019050919050565b6000611517601d83611a16565b91507f45524332303a20696e73756666696369656e7420616c6c6f77616e63650000006000830152602082019050919050565b6000611557602683611a16565b91507f45524332303a207472616e7366657220616d6f756e742065786365656473206260008301527f616c616e636500000000000000000000000000000000000000000000000000006020830152604082019050919050565b60006115bd601c83611a16565b91507f436f6f6c646f776e20706572696f64206e6f742066696e6973686564000000006000830152602082019050919050565b60006115fd602083611a16565b91507f4f776e61626c653a2063616c6c6572206973206e6f7420746865206f776e65726000830152602082019050919050565b600061163d602583611a16565b91507f45524332303a207472616e736665722066726f6d20746865207a65726f20616460008301527f64726573730000000000000000000000000000000000000000000000000000006020830152604082019050919050565b60006116a3602483611a16565b91507f45524332303a20617070726f76652066726f6d20746865207a65726f2061646460008301527f72657373000000000000000000000000000000000000000000000000000000006020830152604082019050919050565b6000611709602583611a16565b91507f45524332303a2064656372656173656420616c6c6f77616e63652062656c6f7760008301527f207a65726f0000000000000000000000000000000000000000000000000000006020830152604082019050919050565b600061176f601f83611a16565b91507f45524332303a206d696e7420746f20746865207a65726f2061646472657373006000830152602082019050919050565b6117ab81611abb565b82525050565b6117ba81611ac5565b82525050565b60006020820190506117d56000830184611381565b92915050565b60006020820190506117f06000830184611390565b92915050565b60006020820190508181036000830152611810818461139f565b905092915050565b60006020820190508181036000830152611831816113d8565b9050919050565b600060208201905081810360008301526118518161143e565b9050919050565b60006020820190508181036000830152611871816114a4565b9050919050565b600060208201905081810360008301526118918161150a565b9050919050565b600060208201905081810360008301526118b18161154a565b9050919050565b600060208201905081810360008301526118d1816115b0565b9050919050565b600060208201905081810360008301526118f1816115f0565b9050919050565b6000602082019050818103600083015261191181611630565b9050919050565b6000602082019050818103600083015261193181611696565b9050919050565b60006020820190508181036000830152611951816116fc565b9050919050565b6000602082019050818103600083015261197181611762565b9050919050565b600060208201905061198d60008301846117a2565b92915050565b60006020820190506119a860008301846117b1565b92915050565b6000604051905081810181811067ffffffffffffffff821117156119d5576119d4611b95565b5b8060405250919050565b600067ffffffffffffffff8211156119fa576119f9611b95565b5b602082029050602081019050919050565b600081519050919050565b600082825260208201905092915050565b6000611a3282611abb565b9150611a3d83611abb565b9250827fffffffffffffffffffffffffffffffffffffffffffffffffffffffffffffffff03821115611a7257611a71611b37565b5b828201905092915050565b6000611a8882611a9b565b9050919050565b60008115159050919050565b600073ffffffffffffffffffffffffffffffffffffffff82169050919050565b6000819050919050565b600060ff82169050919050565b60005b83811015611af0578082015181840152602081019050611ad5565b83811115611aff576000848401525b50505050565b60006002820490506001821680611b1d57607f821691505b60208210811415611b3157611b30611b66565b5b50919050565b7f4e487b7100000000000000000000000000000000000000000000000000000000600052601160045260246000fd5b7f4e487b7100000000000000000000000000000000000000000000000000000000600052602260045260246000fd5b7f4e487b7100000000000000000000000000000000000000000000000000000000600052604160045260246000fd5b6000601f19601f8301169050919050565b611bde81611a7d565b8114611be957600080fd5b50565b611bf581611abb565b8114611c0057600080fd5b5056fea2646970667358221220708ee3af4cf3a22b7147a1157305bc321219939445dc8f663ff9867d0e557ed964736f6c63430008000033",
  "linkReferences": {},
  "deployedLinkReferences": {}
}